{
  "contractName": "TodoListContract",
  "abi": [
    {
      "constant": true,
      "inputs": [
        {
          "name": "",
          "type": "uint256"
        }
      ],
      "name": "tasks",
      "outputs": [
        {
          "name": "id",
          "type": "uint256"
        },
        {
          "name": "taskContent",
          "type": "string"
        },
        {
          "name": "isCompleted",
          "type": "bool"
        }
      ],
      "payable": false,
      "stateMutability": "view",
      "type": "function",
      "signature": "0x8d977672"
    },
    {
      "inputs": [],
      "payable": false,
      "stateMutability": "nonpayable",
      "type": "constructor",
      "signature": "constructor"
    },
    {
      "constant": false,
      "inputs": [
        {
          "name": "_task",
          "type": "string"
        }
      ],
      "name": "addTask",
      "outputs": [],
      "payable": false,
      "stateMutability": "nonpayable",
      "type": "function",
      "signature": "0x67238562"
    },
    {
      "constant": false,
      "inputs": [
        {
          "name": "_id",
          "type": "uint256"
        }
      ],
      "name": "toggleTask",
      "outputs": [],
      "payable": false,
      "stateMutability": "nonpayable",
      "type": "function",
      "signature": "0x613137a4"
    },
    {
      "constant": true,
      "inputs": [],
      "name": "getAllTask",
      "outputs": [
        {
          "components": [
            {
              "name": "id",
              "type": "uint256"
            },
            {
              "name": "taskContent",
              "type": "string"
            },
            {
              "name": "isCompleted",
              "type": "bool"
            }
          ],
          "name": "",
          "type": "tuple[]"
        }
      ],
      "payable": false,
      "stateMutability": "view",
      "type": "function",
      "signature": "0x1bbaf3cf"
    }
  ],
  "bytecode": "0x60806040526000805534801561001457600080fd5b5060408051808201909152600a81527f4669727374205461736b00000000000000000000000000000000000000000000602082015261005b90640100000000610060810204565b61016c565b604080516060810182526000805480835260208084018681528486018490529183526001808252949092208351815590518051939491936100a9939285019291909101906100d1565b50604091909101516002909101805460ff191691151591909117905550600080546001019055565b828054600181600116156101000203166002900490600052602060002090601f016020900481019282601f1061011257805160ff191683800117855561013f565b8280016001018555821561013f579182015b8281111561013f578251825591602001919060010190610124565b5061014b92915061014f565b5090565b61016991905b8082111561014b5760008155600101610155565b90565b6108168061017b6000396000f3fe6080604052600436106100615763ffffffff7c01000000000000000000000000000000000000000000000000000000006000350416631bbaf3cf8114610066578063613137a41461009157806367238562146100b35780638d977672146100d3575b600080fd5b34801561007257600080fd5b5061007b610102565b60405161008891906106f8565b60405180910390f35b34801561009d57600080fd5b506100b16100ac3660046105dd565b61023b565b005b3480156100bf57600080fd5b506100b16100ce3660046105a0565b61035d565b3480156100df57600080fd5b506100f36100ee3660046105dd565b6103ce565b60405161008893929190610709565b60608060005460405190808252806020026020018201604052801561014157816020015b61012e61047d565b8152602001906001900390816101265790505b50905060005b6000548110156102345760008181526001602081815260409283902083516060810185528154815281840180548651600296821615610100026000190190911695909504601f810185900485028601850190965285855290949193858401939092908301828280156101fa5780601f106101cf576101008083540402835291602001916101fa565b820191906000526020600020905b8154815290600101906020018083116101dd57829003601f168201915b50505091835250506002919091015460ff161515602090910152825183908390811061022257fe5b60209081029091010152600101610147565b5090505b90565b61024361047d565b60008281526001602081815260409283902083516060810185528154815281840180548651600296821615610100026000190190911695909504601f810185900485028601850190965285855290949193858401939092908301828280156102ec5780601f106102c1576101008083540402835291602001916102ec565b820191906000526020600020905b8154815290600101906020018083116102cf57829003601f168201915b50505091835250506002919091015460ff1615156020918201526040808301805115905260008581526001808452919020835181558383015180519495508594919361033d938501929101906104a1565b50604091909101516002909101805460ff19169115159190911790555050565b604080516060810182526000805480835260208084018681528486018490529183526001808252949092208351815590518051939491936103a6939285019291909101906104a1565b50604091909101516002909101805460ff191691151591909117905550600080546001019055565b600160208181526000928352604092839020805481840180548651600296821615610100026000190190911695909504601f8101859004850286018501909652858552909491939290919083018282801561046a5780601f1061043f5761010080835404028352916020019161046a565b820191906000526020600020905b81548152906001019060200180831161044d57829003601f168201915b5050506002909301549192505060ff1683565b60606040519081016040528060008152602001606081526020016000151581525090565b828054600181600116156101000203166002900490600052602060002090601f016020900481019282601f106104e257805160ff191683800117855561050f565b8280016001018555821561050f579182015b8281111561050f5782518255916020019190600101906104f4565b5061051b92915061051f565b5090565b61023891905b8082111561051b5760008155600101610525565b6000601f8201831361054a57600080fd5b813561055d6105588261075f565b610738565b9150808252602083016020830185838301111561057957600080fd5b610584838284610796565b50505092915050565b60006105998235610238565b9392505050565b6000602082840312156105b257600080fd5b813567ffffffffffffffff8111156105c957600080fd5b6105d584828501610539565b949350505050565b6000602082840312156105ef57600080fd5b60006105d5848461058d565b60006106068261078d565b8084526020840193508360208202850161061f85610787565b60005b8481101561065657838303885261063a8383516106a6565b925061064582610787565b602098909801979150600101610622565b50909695505050505050565b61066b81610791565b82525050565b600061067c8261078d565b8084526106908160208601602086016107a2565b610699816107d2565b9093016020019392505050565b805160009060608401906106ba85826106ef565b50602083015184820360208601526106d28282610671565b91505060408301516106e76040860182610662565b509392505050565b61066b81610238565b6020808252810161059981846105fb565b6060810161071782866106ef565b81810360208301526107298185610671565b90506105d56040830184610662565b60405181810167ffffffffffffffff8111828210171561075757600080fd5b604052919050565b600067ffffffffffffffff82111561077657600080fd5b506020601f91909101601f19160190565b60200190565b5190565b151590565b82818337506000910152565b60005b838110156107bd5781810151838201526020016107a5565b838111156107cc576000848401525b50505050565b601f01601f19169056fea265627a7a72305820db73cd1a09efb16f9c9fbf02bf015e3e967e0fd68d70098d2137ddf390a79bc56c6578706572696d656e74616cf50037",
  "source": "pragma solidity ^0.5.0;\r\npragma experimental ABIEncoderV2;\r\n\r\ncontract TodoListContract {\r\n    uint taskCount = 0;\r\n    \r\n    struct Task{\r\n        uint id;\r\n        string taskContent;\r\n        bool isCompleted;\r\n    }\r\n\r\n    mapping(uint => Task) public tasks;\r\n\r\n    constructor () public  {\r\n        addTask(\"First Task\");\r\n    }\r\n\r\n    function addTask(string memory _task) public{\r\n        tasks[taskCount] = Task(taskCount, _task, false);\r\n        taskCount++;\r\n    }\r\n\r\n    function toggleTask(uint _id)public {\r\n        Task memory tempTask = tasks[_id];\r\n        tempTask.isCompleted = !tempTask.isCompleted;\r\n        tasks[_id] = tempTask;\r\n    }\r\n    \r\n    function getAllTask() external view returns (Task[] memory) {\r\n        Task[] memory temp = new Task[](taskCount);\r\n        for (uint i = 0; i < taskCount; i++){\r\n            temp[i] = tasks[i];\r\n        }\r\n        return temp;\r\n    }\r\n\r\n}",
  "sourcePath": "D:/Windows/Projects/My Project/todo-app-usng-ethereum/src/truffle/contracts/TodoListContract.sol",
  "compiler": {
    "name": "solc",
    "version": "0.5.0+commit.1d4f565a.Emscripten.clang"
  },
  "schemaVersion": "3.0.1",
  "updatedAt": "2023-08-08T03:38:18.131Z",
  "devdoc": {
    "methods": {}
  },
  "userdoc": {
    "methods": {}
  }
}